:100A430020707265737320616E79206B6579200065
:070A62000508000000000080
:10097D001209397FE87E03120A0C7F80120A727BFE
:08098D00FF7A0A79431209E721
:100995001208008F0D120A72E4FFFE74082FF8A6E4
:0E09A5000D0FBF00010EEF64054E70EF80E2F3
:100A0C00D3EF9400EE940040147D7A7C00ED1D70C1
:0D0A1C00011CED4C70F7EF1F70E61E80E32B
:010A290022AA
:080A6A001F111111111F1F00E3
:100939007F107E00120A0C7F30120A727F067E0039
:10094900120A0C7F30120A727F017E00120A0C7F94
:1009590030120A727F017E00120A0C7F30120A726D
:100969007F10120A727F01120A727F06120A727FC1
:040979000F020A72ED
:050A7200C2B0020A53AE
:050A7700D2B0020A5399
:0F0A53008FA0C2B1D2B2C2B27F027E00020A0CE3
:1009E7008B0E8A0F8910AB0EAA0FA910120A2A6064
:1009F700130510E5107002050F14F9120A2AFF12E9
:050A07000A7780E222E5
:1009B3007F40120A72E4F511AF11EF3395E0FED3D5
:1009C300EF9407EE648094805019EF3395E0FE7442
:1009D3006A2FF582740A3EF583E493FF120A7705C2
:0309E3001180D5AB
:0109E60022EE
:10080000D296D295D294C293C292C291C2902094B1
:1008100032D293D292D291D290C296C295C29420F3
:1008200090063090FD7F31222091063091FD7F347B
:10083000222092063092FD7F372220936F3093FD65
:100840007F2A22209532D293D292D291D290C29610
:10085000C295C2942090063090FD7F3222209106EE
:100860003091FD7F35222092063092FD7F38222084
:10087000933A3093FD7F3022209631D293D292D298
:1008800091D290C296C295C2942090063090FD7F7E
:1008900033222091063091FD7F362220920630923D
:0D08A000FD7F39222093053093FD7F232238
:030000000208AD46
:0C08AD00787FE4F6D8FD7581110208F494
:100A2A00BB010689828A83E0225002E722BBFE02CA
:090A3A00E32289828A83E49322FD
:1008B90002097DE493A3F8E493A34003F68001F2CF
:1008C90008DFF48029E493A3F85407240CC8C33340
:1008D900C4540F4420C8834004F456800146F6DF0F
:1008E900E4800B0102040810204080900A62E47E33
:1008F900019360BCA3FF543F30E509541FFEE49304
:10090900A360010ECF54C025E060A840B8E493A3CA
:10091900FAE493A3F8E493A3C8C582C8CAC583CAF5
:10092900F0A3C8C582C8CAC583CADFE9DEE780BEAD
:010A6900008C
:00000001FF
